:020000040800F2
:1000000048040020A90200080903000809030008A9
:1000100009030008090300080903000800000000A4
:1000200000000000000000000000000009030008BC
:100030000903000800000000090300080903000884
:100040000903000809030008090300080903000860
:100050000903000809030008090300080903000850
:100060000903000809030008090300080903000840
:100070000903000809030008090300080903000830
:100080000903000809030008090300080903000820
:100090000903000809030008090300080903000810
:1000A0000903000809030008090300080903000800
:1000B00009030008090300080903000809030008F0
:1000C00009030008090300080903000809030008E0
:1000D00009030008090300080903000809030008D0
:1000E00009030008090300080903000809030008C0
:1000F00009030008090300080903000809030008B0
:10010000090300080903000809030008090300089F
:10011000090300080903000809030008090300088F
:10012000090300080903000809030008090300087F
:100130005FF808F180B500AF154A154B1B6843F016
:10014000010313601249124B5A68124B13404B6063
:100150000F4A0F4B1B6823F0847323F48033136022
:100160000B4A0B4B1B6823F480231360084A084B8F
:100170005B6823F4FE035360054B4FF41F029A6043
:1001800000F00CF8044B4FF000629A6000BF80BD95
:10019000001002400000FFF800ED00E080B500AF65
:1001A00000F002F800BF80BD80B483B000AF002330
:1001B0007B6000233B603A4A394B1B6843F4803331
:1001C0001360374B1B6803F400333B607B680133DB
:1001D0007B603B68002B03D17B68B3F5A06FF0D147
:1001E0002F4B1B6803F40033002B02D001233B602C
:1001F00001E000233B603B68012B4BD1294A294B8E
:100200001B6843F010031360264A264B1B6823F03B
:1002100003031360234A234B1B6843F0020313605C
:100220001F4A1F4B5B6853601D4A1D4B5B68536040
:100230001B4A1B4B5B6843F480635360184A184B9E
:100240005B6823F47C135360154A154B5B6843F4D9
:10025000E8135360124A124B1B6843F0807313601B
:1002600000BF0F4B1B6803F00073002BF9D00C4A42
:100270000B4B5B6823F003035360094A084B5B6830
:1002800043F00203536000BF054B5B6803F00C03AF
:10029000082BF9D100BF0C37BD4680BC704700BFAA
:1002A000001002400020024080B582B000AF114B28
:1002B0007B60114B3B6007E03B681A1D3A607A682F
:1002C000111D796012681A603B680C4A9342F3D39F
:1002D0000B480C494FF000028842B8BF40F8042B8D
:1002E000FADBFFF727FF00F011FB00BF0837BD4620
:1002F00080BD00BF900F0008000000200C0000200F
:100300000C0000204400002080B400AFFEE700BFD6
:1003100080B485B000AFF860B9601346FB71FB791B
:10032000002B09D0FB68DB680121BA6801FA02F2F0
:100330001A43FB68DA6009E0FB68DB680121BA68F0
:1003400001FA02F2D2431A40FB68DA6000BF1437A8
:10035000BD4680BC704700BF80B582B000AF034689
:10036000FB71184BD868184BD968FB7903F0100360
:10037000DBB21A46FFF7CCFF124B1869124B196912
:10038000FB7903F02003DBB21A46FFF7C1FF0D4BE8
:1003900058690D4B5969FB7903F04003DBB21A46EB
:1003A000FFF7B6FF074B9869074B9969FB7923F074
:1003B0007F03DBB21A46FFF7ABFF00BF0837BD462D
:1003C00080BD00BF280000200C00002080B500AFD9
:1003D0000020FFF7C1FF0C4B18680C4B1B68002274
:1003E0001946FFF795FF00BF074B9B699B68074ABB
:1003F0009269012101FA02F21340002BF4D1FF208F
:10040000FFF7AAFF00BF80BD280000200C000020DD
:1004100080B582B000AF154B9868154B9B680122E0
:100420001946FFF775FF00237B6002E07B6801330C
:100430007B607B6841F287329342F7DD0B4B986813
:100440000B4B9B6800221946FFF762FF00233B60BD
:1004500002E03B6801333B603B6841F287329342E4
:10046000F7DD00BF0837BD4680BD00BF2800002073
:100470000C00002080B584B000AF0346FB71FFF78D
:10048000A5FFFB791846FFF767FF124B1868124B60
:100490001B6800221946FFF73BFFFFF7B9FFFB7906
:1004A0001B01DBB21846FFF757FFFFF7B1FF002033
:1004B000FFF752FF0023FB6002E0FB680133FB60A3
:1004C000FB6841F657329342F7DD00BF1037BD4657
:1004D00080BD00BF280000200C00002080B582B045
:1004E00000AF0346FB71FFF771FFFB791846FFF77A
:1004F00033FF0C4B18680C4B1B6801221946FFF7A1
:1005000007FFFFF785FFFB791B01DBB21846FFF7FA
:1005100023FFFFF77DFF0020FFF71EFF00BF083716
:10052000BD4680BD280000200C00002080B582B0B0
:1005300000AF0120FFF79EFF00237B6002E07B6895
:1005400001337B607B68B3F5FA6FF8DB00BF0837D7
:10055000BD4680BD80B582B000AF0220FFF78AFFA4
:1005600000237B6002E07B6801337B607B68B3F52E
:10057000FA6FF8DB00BF0837BD4680BD80B586B096
:1005800000AF78603960FFF7E5FF00237B6102E090
:100590007B6901337B617B69B3F5FA6FF8DB7A68BD
:1005A00013469B001344DB001A463B681344BB60B0
:1005B00000233B610FE01420FFF75CFF0023FB608A
:1005C00002E0FB680133FB60FB68B3F5FA6FF8DB10
:1005D0003B6901333B613A69BB689A42EBDB00BF80
:1005E0001837BD4680BD00BF80B582B000AF03465E
:1005F000FB71FB791846FFF771FF00BF0837BD4656
:1006000080BD00BF80B582B000AF786006E07B6837
:100610005A1C7A601B781846FFF760FF7B681B78CE
:10062000002BF4D100BF0837BD4680BD80B586B031
:1006300000AF786000237B6100233B611EE07A6994
:1006400013469B0013445B0018467968204B83FBDC
:1006500001239A10CB17D21A13469B0013445B0058
:10066000CA1A83187B613B6901333B617B68184A76
:1006700082FB03129210DB17D31A7B607B68002B7E
:10068000DDDC0023FB601BE07969114B83FB012358
:100690009A10CB17D21A13469B0013445B00CA1A58
:1006A0000C4B9B5C1846FFF719FF7B69084A82FBDD
:1006B00003129210DB17D31A7B61FB680133FB60D6
:1006C000FA683B699A42DFDB00BF1837BD4680BD40
:1006D000676666660000002080B586B000AF78606F
:1006E0003960786800F00CFC0346FB60F868FFF79F
:1006F0009DFF01237B6100233B6108E07A6913467B
:100700009B0013445B007B613B6901333B613A69A9
:100710003B689A42F2DB2E20FFF766FF786900F013
:100720004BFA03467968184600F09AFA03461846D1
:1007300000F0E6FB0346BB60FB687A6902FB03F34B
:10074000BA68D31ABB60B868FFF770FF00BF1837EC
:10075000BD4680BD80B582B000AF0E20FFF78AFE97
:1007600000237B6002E07B6801337B607B6842F69C
:10077000F7229342F7DD00BF0837BD4680BD00BFBA
:1007800080B582B000AF0F20FFF774FE00237B60BE
:1007900002E07B6801337B607B6842F6F72293427C
:1007A000F7DD00BF0837BD4680BD00BF80B582B011
:1007B00000AF0C20FFF75EFE00237B6002E07B6849
:1007C00001337B607B6842F6F7229342F7DD00BF7E
:1007D0000837BD4680BD00BF80B483B000AF7860ED
:1007E00039603B68072B16DC3B689B003B607B68ED
:1007F0001B680F213A6801FA02F2D2431A407B6863
:100800001A607B681B6801213A6801FA02F21A43F8
:100810007B681A6016E03B68083B9B003B607B6886
:100820005B680F213A6801FA02F2D2431A407B68F2
:100830005A607B685B6801213A6801FA02F21A4348
:100840007B685A6000BF0C37BD4680BC704700BF54
:1008500080B586B000AF7860396000237B611FE00F
:100860007B699B007A6813441A6826497B6941F8C2
:1008700023207B699B003A6813441A6822497B69EC
:1008800041F823201F4A7B6952F823001E4A7B69E6
:1008900052F823301946FFF79FFF7B6901337B61D4
:1008A0007B69062BDCDD0220FFF7E4FD00233B61C2
:1008B00002E03B6901333B613B6942F6F722934218
:1008C000F7DD2820FFF7D6FD0023FB6002E0FB6880
:1008D0000133FB60FB6842F6F7229342F7DD0C2000
:1008E000FFF7C8FD0023BB6002E0BB680133BB60BB
:1008F000BB6842F6F7229342F7DD00BF1837BD46CA
:1009000080BD00BF280000200C000020B0B598B0CA
:1009100000AF434A424B9B6943F008039361414B4C
:1009200007F12C041D460FCD0FC495E8070084E89D
:1009300007003D4B07F110041D460FCD0FC495E88D
:10094000070084E8070007F1100207F12C031146A5
:100950001846FFF77DFFFFF7E9FDFFF7FBFEFFF706
:100960000FFF324A3B1D07CA83E807000023FB65DF
:1009700013E03A1DFB6D13441B781846FFF734FE55
:100980000023BB6502E0BB6D0133BB65BB6D284A2C
:100990009342F8DDFB6D0133FB65FB6D0A2BE8DD4F
:1009A000FFF7D8FD2348FFF741FE00237B6502E0F7
:1009B0007B6D01337B657B6D1F4A9342F8DD00211F
:1009C0000120FFF7DBFD1D4BBB640321B86CFFF773
:1009D00083FEFFF7EBFEFFF7BDFE00233B6502E061
:1009E0003B6D01333B653B6D134A9342F8DD0021BB
:1009F0000120FFF7C3FD08211148FFF76DFE00231A
:100A0000FB6402E0FB6C0133FB64FB6C0A4A93421B
:100A1000F8DDFFF78BFD0548FFF7F4FDFEE700BFAB
:100A200000100240580F0008740F00084C0F000817
:100A30003F420F00D20296497F969800B6F39D3F41
:100A4000A4709D3F80F0004002E000BF81F00041B3
:100A500042001FBF5FEA410392EA030F7FEA226C64
:100A60007FEA236C6AD04FEA1262D2EB1363C1BFF4
:100A7000D218414048404140B8BF5B42192B88BF63
:100A8000704710F0004F40F4000020F07F4018BF86
:100A9000404211F0004F41F4000121F07F4118BFA6
:100AA000494292EA030F3FD0A2F1010241FA03FC4E
:100AB00010EB0C00C3F1200301FA03F100F0004336
:100AC00002D5494260EB4000B0F5000F13D3B0F1FE
:100AD000807F06D340084FEA310102F10102FE2A6D
:100AE00051D2B1F1004F40EBC25008BF20F00100DD
:100AF00040EA03007047490040EB000010F4000F8B
:100B0000A2F10102EDD1B0FA80FCACF1080CB2EB1D
:100B10000C0200FA0CF0AABF00EBC250524218437C
:100B2000BCBFD0401843704792F0000F81F4000121
:100B300006BF80F400000132013BB5E74FEA4103F4
:100B40007FEA226C18BF7FEA236C21D092EA030F60
:100B500004D092F0000F08BF0846704790EA010FDA
:100B60001CBF0020704712F07F4F04D1400028BF07
:100B700040F00040704712F100723CBF00F50000E9
:100B8000704700F0004343F0FE4040F4000070471F
:100B90007FEA226216BF08467FEA236301464202CB
:100BA00006BF5FEA412390EA010F40F480007047DE
:100BB0004FF0000304E000BF10F0004348BF404284
:100BC0005FEA000C08BF704743F0964301464FF0C0
:100BD00000001CE050EA010208BF70474FF000031C
:100BE0000AE000BF50EA010208BF704711F000435D
:100BF00002D5404261EB41015FEA010C02BF84462D
:100C00000146002043F0B64308BFA3F18053A3F58B
:100C10000003BCFA8CF2083AA3EBC25310DB01FAD2
:100C200002FC634400FA02FCC2F12002BCF1004F56
:100C300020FA02F243EB020008BF20F001007047E7
:100C400002F1200201FA02FCC2F1200250EA4C003B
:100C500021FA02F243EB020008BF20EADC70704781
:100C60004FF0FF0C1CEAD0521EBF1CEAD15392EA8F
:100C70000C0F93EA0C0F6FD01A4480EA010C40026B
:100C800018BF5FEA41211ED04FF0006343EA5010C5
:100C900043EA5111A0FB01310CF00040B1F5000F07
:100CA0003EBF490041EAD3715B0040EA010062F1B6
:100CB0007F02FD2A1DD8B3F1004F40EBC25008BFA0
:100CC00020F00100704790F0000F0CF0004C08BFBE
:100CD00049024CEA502040EA51207F3AC2BFD2F18B
:100CE000FF0340EAC250704740F400004FF0000399
:100CF000013A5DDC12F1190FDCBF00F000407047D3
:100D0000C2F10002410021FA02F1C2F1200200FA10
:100D100002FC5FEA310040F1000053EA4C0308BFD7
:100D200020EADC70704792F0000F00F0004C02BF28
:100D3000400010F4000F013AF9D040EA0C0093F0A3
:100D4000000F01F0004C02BF490011F4000F013BFD
:100D5000F9D041EA0C018FE70CEAD15392EA0C0F6B
:100D600018BF93EA0C0F0AD030F0004C18BF31F0D6
:100D7000004CD8D180EA010000F00040704790F0AC
:100D8000000F17BF90F0004F084691F0000F91F050
:100D9000004F14D092EA0C0F01D142020FD193EA16
:100DA0000C0F03D14B0218BF084608D180EA01009E
:100DB00000F0004040F0FE4040F40000704740F07A
:100DC000FE4040F4400070474FF0FF0C1CEAD05248
:100DD0001EBF1CEAD15392EA0C0F93EA0C0F69D0A4
:100DE000A2EB030280EA010C49024FEA402037D00F
:100DF0004FF0805343EA111143EA10130CF0004006
:100E00008B4238BF5B0042F17D024FF4000C8B42F5
:100E100024BF5B1A40EA0C00B3EB510F24BFA3EBD5
:100E2000510340EA5C00B3EB910F24BFA3EB9103A5
:100E300040EA9C00B3EBD10F24BFA3EBD10340EAFF
:100E4000DC001B0118BF5FEA1C1CE0D1FD2A3FF645
:100E500050AF8B4240EBC25008BF20F001007047FA
:100E60000CF0004C4CEA50207F32C2BFD2F1FF039D
:100E700040EAC250704740F400004FF00003013ACE
:100E800037E792F0000F00F0004C02BF400010F472
:100E9000000F013AF9D040EA0C0093F0000F01F086
:100EA000004C02BF490011F4000F013BF9D041EAA8
:100EB0000C0195E70CEAD15392EA0C0F08D14202DB
:100EC0007FF47DAF93EA0C0F7FF470AF084676E7AE
:100ED00093EA0C0F04D14B023FF44CAF08466EE787
:100EE00030F0004C18BF31F0004CCAD130F0004255
:100EF0007FF45CAF31F000437FF43CAF5FE700BFAD
:100F00004FEA4002B2F1FE4F0FD34FF09E03B3EB16
:100F100012620DD94FEA002343F0004310F0004F56
:100F200023FA02F018BF404270474FF000007047AC
:100F300012F1610F01D1420205D110F0004008BF4B
:100F40006FF0004070474FF00000704748656C6CD0
:100F50006F20776F726C6400000C0140000C014040
:100F6000000C0140000C0140000C0140000C01404D
:100F7000000C01400E0000000F00000009000000FE
:100F80000A0000000B0000000C0000000D00000033
:0C0F900030313233343536373839000048
:0400000508000000EF
:00000001FF
